:020000041000EA
:1000000000B5324B212058609868022188439860DF
:10001000D860186158612E4B002199600221596106
:100020000121F02299502B49196001219960352056
:1000300000F044F80222904214D00621196600F024
:1000400034F8196E01211966002018661A6600F04E
:100050002CF8196E196E196E052000F02FF8012189
:100060000842F9D1002199601B49196000215960AB
:100070001A491B48016001219960EB211966A021F2
:10008000196600F012F800219960164914480160C1
:100090000121996001BC002800D000471248134993
:1000A000086003C880F30888084703B5996A0420EC
:1000B0000142FBD001200142F8D103BD02B5186610
:1000C0001866FFF7F2FF186E186E02BD00000240BE
:1000D000000000180000070000035F00212200005C
:1000E000F4000018222000A00001001008ED00E03C
:1000F00000000000000000000000000074B24E7A12
:1001000000200420F7010010C3010010C5010010F9
:10011000C1010010C1010010C1010010C101001097
:10012000C1010010C1010010C1010010C701001081
:10013000C1010010C1010010C9010010CB01001065
:10014000CD010010CD010010CD010010CD01001037
:10015000CD010010CD010010CD010010CD01001027
:10016000CD010010CD010010CD010010CD01001017
:10017000CD010010CD010010CD010010CD01001007
:10018000CD010010CD010010CD010010CD010010F7
:10019000CD010010CD010010CD010010CD010010E7
:1001A000CD010010CD010010CD010010CD010010D7
:1001B000CD010010CD010010CD010010CD010010C7
:1001C00000BE00BE00BE00BE00BE00BE00F04BF888
:1001D000103800BEF2EB8871403200105C32001023
:1001E0003402001090A31AE700202149086006C8D5
:1001F00081F3088810471F48006800282FD10DA4FC
:100200000ECC002902D000F012F8F9E71A491B4A77
:10021000002000E001C19142FCD1194988471949E9
:1002200088471949884700BEFDE701C901C29A42C3
:10023000FBD370475C320010C00000207C0A002015
:10024000183C00100000042000000420183C00109E
:1002500000100420001004200000000070470B482C
:1002600001F01CFC0047EFF30580C0B270470000AE
:1002700008ED00E0000000D0800A0020840E00207D
:100280001D12001079030010411300105756000092
:1002900006005250ABB360531032001006005250AB
:1002A000861C030220320010060052505422A29DE8
:1002B0002832001005005250DE65F468183C00102A
:1002C000F8B5C046054B0648033310B51B1A062B7C
:1002D00003D9044B002B00D0984710BD7C0A0020A6
:1002E0007C0A0020000000000648074910B5091AE2
:1002F0008910CB0F5918491003D0044B002B00D0A4
:10030000984710BD7C0A00207C0A002000000000F5
:1003100010B5074C2378002B09D1FFF7D3FF054B0D
:10032000002B02D0044800E000BF0123237010BD61
:10033000800B00200000000088310010094B10B530
:10034000002B03D00849094800E000BF08480368B3
:10035000002B02D1FFF7C8FF10BD064B002BF9D0D0
:100360009847F7E700000000840B00208831001058
:100370007C0A00200000000070B58025D024AD0468
:100380002E001920240600F00BF865626661FA2041
:1003900000F00CFBA561FA2000F008FBF6E7C04670
:1003A0000123D0228340120693629361094A83009D
:1003B0009446402263441968C0004A40C02111405D
:1003C0008022520113431960034B9C46052360446D
:1003D0004360704704C0014000400140F8B5EFF3AE
:1003E000108C72B60D4F3B68002BFCD0BFF35F8FB3
:1003F000CB08C018057807242B000C40E3400126E9
:10040000334008D1A64035430570BFF35F8F3B6092
:100410008CF31088F8BD100000F094FF2C0100D080
:100420000021044B044ABFF35F8F02C39342FAD109
:100430007047C046000100D0800100D0044A107807
:10044000431CDBB2172B00D9102313707047C04632
:1004500080010020024B18688007C00F7047C0461B
:1004600000C0064083680B4810B58446614462446E
:10047000090112019A18591854684B6801209C42CE
:1004800001D802D00020C0B210BD12680B689A4299
:10049000F9D8F7E7FFFFFF0F40BF002000217047AA
:1004A000F8B54E464546DE465746E0B51F000CAB54
:1004B0001D780DAB1B7881469B4603681600984655
:1004C000002D08D1987B002841D13CBC904699462C
:1004D000A246AB46F8BD28006C006419033C384BBB
:1004E00000229C464B469B6860449C4600010A9B48
:1004F000604483600B9B06604760C36043461B6893
:100500001B199A705A701A7043465B7B9A46002BEF
:100510003BD043462A00986851465B68984743465B
:100520001A68002824D053465B005344033BD31879
:1005300014195246A2701A78002A00D062701D70F9
:100540005246434628005A73AA45BED11FE0414691
:1005500044001B682418033C1B195A788A73002A2C
:1005600000D1CA73002205009A705A701A70B6E75B
:1005700053465B005344033BD31814199D702278F3
:10058000002A00D05A705346237043465D734B4691
:100590003200187D3B0000F0E3FA041E07D05B46F2
:1005A000002B04D14B462900186800F00DFD0E9B6E
:1005B000002B02D01C70280087E7280085E7C04682
:1005C000FFFFFF0F744B8200F0B5D4580023DE46C6
:1005D00057464E4645469B46E0B58DB00B9000F021
:1005E0005DFA6268EFF3108572B61368002BFCD0D9
:1005F000BFF35F8F23689C465B7B9946002B00D13D
:1006000081E0A268654B90464B441B0198444346E9
:100610001E685F6832003B00121A8B41002B00DC21
:1006200084E03B0032000B9800F09AFA002300228D
:1006300008920993002300279A466368BFF35F8FEF
:100640005A461A6085F310885346002B64D00A9BE3
:10065000390018024B461843D0476268069007914C
:10066000EFF3108872B6564645461368002BFCD04F
:10067000B246A846BFF35F8F0699079A002A25DA8B
:100680002369002B28D0089D099E6D1A96412A00E7
:100690003300089D099E9E4200D971E000D173E0AD
:1006A000594604910121039149460291514601970F
:1006B00000912000FFF7F4FE5B4623616368BFF3FF
:1006C0005F8F5A461A6088F3108888E71300194331
:1006D00002D02369002B46D12368DA7B002A07D099
:1006E00051008A1819688C4649466244033A517091
:1006F0004A46DA73E2684B469446013B63441A78F3
:1007000001321A70D8E700230022089209930023CF
:1007100000279A46002090E7002800D05FE70DB040
:100720003CBC90469946A246AB46F0BD002B02D198
:10073000002A00D075E70021604600F099FB43468F
:100740001A685B680892099343469B689A46434639
:10075000DF68E3684B44013B1B780A931B02184394
:100760002061002069E700F099F9069A079B1218AA
:100770004B41994204D800D092E7904200D88FE7CD
:1007800001225242D3178BE7954200D888E7012215
:100790005242D31784E7C046580C0020FFFFFF0FDA
:1007A00010B5104C6368002B00D010BD23000E4A1A
:1007B0001021206800F03EFB032000F063F90320C5
:1007C00000F03CFA0949032000F084F9FFF736FEF7
:1007D000074B9C46032360442375064B80006060F2
:1007E000DC60E2E78401002065040010C50500100C
:1007F00040000034580C0020F0B557464E464546A0
:10080000DE460400E0B50D0006267642F7173619DD
:100810006F4183B08F423ED83BD000F03FF93200A9
:100820003B00121A8B41002B3FDD5C4B9A465A6805
:10083000EFF3108B72B61368002BFCD0BFF35F8F01
:1008400053461B6899469B7B9846002B32D15346F2
:100850005B68BFF35F8F00221A608BF310884346FA
:10086000002B09D039004E4A536A8B420FD3906A4D
:10087000B04201D28B420AD02000290000F01AF9C0
:1008800003B03CBC90469946A246AB46F0BD20BFA3
:10089000EAE78642C1D90026002700F0FFF83200BF
:1008A0003B00121A8B41002BBFDC002BE4D1002A45
:1008B000BBD1E1E75B0043444A46033B9C464946C3
:1008C00012680093624453788B73002B00D1CB7372
:1008D000002351469370537013708968314A8C46D7
:1008E0004244314912016244166057609160D360FE
:1008F00000994A468C461268624493705370137094
:100900004B465B7B0193002B35D0190048464B4684
:10091000424680685B689847002819D00198009982
:1009200084464A46430063448C4669461268097906
:10093000033BD318624491701978002900D051709C
:1009400042461A704B465873804500D07FE715E049
:100950004B4601981A688446009BD11843006344B3
:10096000033BD31842469A700A78002A00D05A7086
:100970006B461B790B704B4642465A735346320006
:10098000187D3B0000F0ECF8002800D15FE75346EB
:100990004146186800F018FB59E7C0468401002062
:1009A00000400540FFFFFF0F9904001070B50600DE
:1009B00000F074F8FA2204000D00920000233000C9
:1009C000002101F003F9001969418D4205D9012088
:1009D0004042C117FFF710FF70BD8D42FAD184422B
:1009E000F5D8F7E7F8B5CE46474680B5EFF305836F
:1009F0003F22134018001038EFF3108C72B61B49D9
:100A00000A68002AFCD0BFF35F8F01210F008740E6
:100A1000174D184A6F63147891462200C2409046E1
:100A20004646002231420BD0696A134D8846810048
:100A30004D59A84512D3114BBC43CA584B461C70A4
:100A4000BFF35F8F0021094B19608CF31088002AD7
:100A500000D090470CBC90469946F8BD08499B00D1
:100A60008846434419681960EAE7C046280100D067
:100A7000004005407A0C0020680C0020D00B0020BC
:100A8000D03F054010B50100024A0348FFF7A6FC1D
:100A900010BDC04690310010780C0020044A516A05
:100AA00000E01900906A536A9942FAD17047C04633
:100AB00000400540064A536A9942FCD807D1044BCE
:100AC00002E05A6A914202D19A6A8242F9D370478F
:100AD0000040054070B504000D00EFF3108672B6BB
:100AE0001A4A1368002BFCD0BFF35F8F002D1BD078
:100AF000200000F00FFE164988420AD0200000F0C6
:100B000011FE0121200000F0F3FD0123A340114A52
:100B10001360114BA400E550BFF35F8F00220B4B15
:100B20001A6086F3108870BD0B4BA200D5500122CD
:100B3000A2400A4920000B7893430B70044900F04F
:100B40001BFE0021200000F0D3FDE5E7280100D0C6
:100B5000E509001038600540D00B00207A0C002019
:100B6000F0B5D6464F4646462F4CC0B5656A00E004
:100B70000D00A66A616AA942FAD1AB4249D9EFF3E6
:100B8000108972B6294C21680029FCD0BFF35F8F11
:100B90000126274986408C460978264D0F003743A9
:100BA0008846F9B28A46614654460C701E49041DB7
:100BB000A4004E636250840063510D6A00243542E4
:100BC0001AD04D6A00E025008F6A4C6AAC42FAD117
:100BD000AB4224D801D1BA4221D8D04521D0124B02
:100BE000154A1E625E631F2318401E3B834013603C
:100BF0006346424601241A70BFF35F8F00220B4BFD
:100C00001A6089F3108820001CBC90469946A246C1
:100C1000F0BDAB4201D1B242B1D80124F3E70024C8
:100C2000EAE70124E8E7C04600400540280100D07B
:100C30007A0C0020680C002080E200E010B5EFF391
:100C4000108472B60A490B68002BFCD0BFF35F8F8B
:100C500001238340074A0848136202789A430270CE
:100C6000BFF35F8F00230B6084F3108810BDC04674
:100C7000280100D0004005407A0C0020024B9C4621
:100C800061448900016070474000003410B50400E1
:100C9000FFF7D4FB01002000FFF7F0FFFF232371D3
:100CA000BFF35F8F10BDC046F8B54E464546DE46E1
:100CB0005746E0B54C0064180368033C1A190D0050
:100CC000517806008946002906D128003CBC904690
:100CD0009946A246AB46F8BD4F004F44033FD81992
:100CE00041788846002141705170002D12D0736800
:100CF0004A462900B06898473368002873D0DF1946
:100D00001A19BD701178002900D079704946270062
:100D1000117000E04D464246002AD6D054004444AB
:100D2000033C1A1951788946002911D1736842464B
:100D30002900B06898473368002849D01C19DF198A
:100D4000A5703B78002B00D0637043463B70BCE736
:100D50004900494403398A46534459788B46002157
:100D60005970517073684A464146B0689847336875
:100D7000002843D152461C199A184B46A370137889
:100D8000002B00D0637043465446C84613705B4640
:100D9000002BCBD059463000FFF786FF8146002854
:100DA000C4D002004146B068736898473268002892
:100DB0002FD04B465B004B44033B1119D3184246DE
:100DC0009A700A78002A00D05A704B460B70ADE733
:100DD0001C19DF194346BB702378002B00D07B70B1
:100DE0002570454671E749461C19DA19A17011783A
:100DF000002900D0617015704D468CE741461A19E4
:100E0000534499701178002900D059704B461370E3
:100E1000BDE74B465B004B44033BD11814194A46CF
:100E2000A2700A78002A00D0627042461C000A7044
:100E3000C8467BE710B583600023CCB2437301330F
:100E4000047342608373C4730068012C07D90123C3
:100E5000421C0133DBB2137003329C42F9D8FF23EA
:100E600019404B005918002340180338437010BD37
:100E7000F0B54E4657464546DE46E0B5477B03682B
:100E80007C00E419033C1A19167883B005008946E2
:100E9000002E1ED1002911D0C07B002869D041004E
:100EA0000918591803394F70EF73002E06D07100DE
:100EB000891903398846002143449970002338007A
:100EC00053706E7303B03CBC90469946A246AB4645
:100ED000F0BD71008919033988465918487882464F
:100EE000002807D149460029E5D0E87B0028D6D163
:100EF000EF73DCE742005244033A944601926344A4
:100F00005A78934600225A704A706B6852463100F4
:100F1000A86898472B68002832D0414601985A1893
:100F200019188E701078002825D1514611705A4634
:100F3000002A23D059462800FFF7B6FE8246002833
:100F40001BD002006B683100A86898472B68002806
:100F500025D042469918524652005244033A9A18F4
:100F600096700878002800D0507052460A701A19FE
:100F7000B8E7EF73A2E74870D7E72B681A19B1E713
:100F800041465046019A59189A18887010780028DE
:100F900000D048701670019A56469046C7E75246F0
:100FA0005100514403395A18404693465246181886
:100FB00082705A461278002A00D042705A468846FB
:100FC00016701A1956468DE7F0B54546DE46574667
:100FD0004E46E0B50C0083B00500002200293DD04C
:100FE000477B0168BC426BD066003619033E881906
:100FF0008378002B32D05A00D318033BCB181A78D1
:10100000944202D143E0002A08D053009B18033BCE
:10101000CB185A789442F6D142785A7000238370E4
:10102000437003789846002B25D1EA7B002A1DD017
:1010300053009B18CB18033B5C704346EC73002BAA
:1010400000D171E05C0000234444033C09198B701B
:101050004370002F1ED1434601226B73100003B072
:101060003CBC90469946A246AB46F0BDB846EC73F0
:1010700000234370EFE719002800FFF715FE2968E9
:10108000EA7B80466F7B8819002AD6D0D0E7427869
:101090001A70C3E742463900A8686B6898472A6807
:1010A000002824D07B00DB191419033BD318A77048
:1010B0001A78002A00D062704246B8461A70CAE711
:1010C0007E00F619033E8B191878804600281BD144
:1010D000E87B002804D0420012188A18033A5470A2
:1010E000EC7300225A70434601326B73B6E77B0003
:1010F000DB19033B1419D31842469A702278002A50
:1011000000D05A702770A6E744004444E01E0190C6
:1011100008184478A246002C08D1EC7B002C76D12C
:10112000EF7300228270DCE7B846A1E76300534406
:10113000033B994649444B784A7042709B462200D3
:101140006B684146A86898472B6800284BD04946F1
:101150004046019C59181A1988701078002850D1FF
:101160005146A14611705A46002A20D059462800FF
:10117000FFF79AFD041E19D002004146A8686B686B
:10118000984700281ED04A4641462B6898186200AE
:101190001219033A9A1891700178002900D0517001
:1011A0000470E97B002905D19B19B9E72B684A46F1
:1011B0009818F6E74A0052189A18033A57709B1984
:1011C000EF73AEE74B462968600000190338CB186F
:1011D00008189C700278002A00D05A704346A04636
:1011E00003708B1999E74A469818019A9C18524641
:1011F000A2700278002A00D062704246D046027087
:10120000B1E7487051461170019A9146ABE703224D
:1012100062438A18033A577082E7C0462C4A2D4B26
:1012200070B51A602C4A2D4B2D491A6010008B683E
:101230009843FBD12B4E2C4B9E420AD2F5430024FF
:10124000ED18AD080135A300F35801349847AC42BE
:10125000F9D100F095F8254A204B1A60204A93688E
:10126000DB018033FBD14022214B224C9A675A6725
:101270001A67DA66204B9C420BD2E6430025F6182B
:10128000F608013620000135FFF700FD0834B542AD
:10129000F8D11A4D1A4CC022A168280000F008FDB0
:1012A000A560FFF7BDF800F09FFBFFF779FA154E38
:1012B000154B9E420AD2F5430024ED18AD080135C6
:1012C000A300F35801349847A542F9D170BDC04638
:1012D000BFCDFFFF00E00040FE7F3C0000F000407B
:1012E00000C00040680A0020780A0020FFFFFF01CC
:1012F00000F00140600A0020680A00200000002081
:1013000000ED00E0780A00207C0A0020094A1368FA
:10131000002B06D008491818884208D81060180019
:101320007047064B0449181813608842F6D901200B
:101330004042F5E7500C002000000420840E0020FD
:1013400000BEFDE70FB400B5084883B000F014FDFF
:10135000049B002B07D005A91800019100F07EFB2B
:10136000034800F009FD00BEFDE7C046C031001093
:10137000D031001010B50148FFF7E4FFB431001080
:1013800030B50C2083B000F071F9FFF763F8002846
:101390000ED09C4B9C4A1A605A609A60DA601A61BF
:1013A0005A619A61DA611A62984A5A6203B030BD92
:1013B000974CA06700F062F90122964B1A60636CAB
:1013C000012BFCD10322944B1A60914A936B012BA1
:1013D000FCD1C022914B92011A60914B91491A6045
:1013E00010008B689843031EFAD1022406338E4AFC
:1013F00001218E48009400F055F905238C4A009491
:1014000001218C4800F04EF98B4B5A68FF2A02D814
:10141000802252005A6080227A4C7F4B216912014F
:10142000854D1A60002900D0E5E0E021824B0220C2
:101430001A681140802252012A43116019684840FD
:1014400003210140116004219A681142FCD08022DE
:10145000802192012A4309011160802252005A60C2
:10146000764B2361764B5968FF2900D8C1E00322EF
:10147000684B73481A60012103009A681142FCD03E
:10148000E0251A68154080225201024315601B684E
:101490004B400321194011600221694A93681942A7
:1014A000FCD0802380219B01034309011960802126
:1014B000644B490051606361634B5A68FF2A00D84E
:1014C00059608022614BE16912015F4D1A60002969
:1014D00005D0606900F014FB01300138FDD1E02235
:1014E00059490B681A4080235B012B431A60802303
:1014F00080229B012B4312011A608022424B520032
:101500004A60E361524B5968FF2900D85A60802233
:10151000504B216A12014E4D1A60002905D06069B6
:1015200000F0EEFA01300138FDD1E02248490B68A5
:101530001A4080235B012B431A60802380229B0189
:101540002B4312011A6080235B004B602E4B424AF2
:101550002362424B5968914201D801325A6080227D
:101560003F4B616A12013D4D1A60002905D0606948
:1015700000F0C6FA01300138FDD1E02237490B688E
:101580001A4080235B012B431A60802380229B0139
:101590002B4312011A608023DB024B601B4B6362FA
:1015A000304B5A68FF2A02D8802252005A608022AB
:1015B0002D4BA16912012B4D1A60002905D06069DD
:1015C00000F09EFA01300138FDD1E02225490B6878
:1015D0001A4080235B012B431A60802380229B01E9
:1015E0002B4312011A6080235B004B60154BA361F3
:1015F000DCE65A603BE7606900F082FA01300138AE
:10160000FDD112E7E00B0020006CDC021BB70000EC
:10161000008000403CB0004030B0004000E000409E
:1016200000F0004000C00040002F685900800240D8
:1016300000389C1C00C0024030800040001BB700F6
:101640003C800040405973075480004054B0004033
:101650006080004060B00040FFFF03006C800040ED
:101660006CB000404880004048B0004080239B00A0
:101670001843014BD862704700800540AA23064AF0
:101680001B0113602F230549D360054B1960536874
:10169000002BFCDA7047C0460040024000B0FA0060
:1016A0000060024070B51D0001235B4243600023CF
:1016B0000400836001600C20160000F021FA0B4941
:1016C0004143300000F01CFAC022231D92011A434E
:1016D0002123A06013602368002BFCDA049B2D04F7
:1016E0001B031D430823E560136070BD40420F00DB
:1016F00001238340002902D1034A13607047034A43
:101700001360034A1360F9E780E100E080E200E043
:1017100000E100E0024B10309B688000C058704729
:1017200000ED00E070B50D00EFF3108672B60F4AC1
:101730001368002BFCD0BFF35F8F0D4B10309B68FC
:1017400084001B590B4A934203D09D4201D0FFF7FE
:1017500011FE074B9B681D51BFF35F8FBFF35F8F77
:101760000022024B1A6086F3108870BD240100D05D
:1017700000ED00E0CD010010F0B54546DE465746CD
:101780004E46E0B50D0083B0EFF3108B72B65C4AA5
:101790001368002BFCD0BFF35F8F1022904680446B
:1017A0004246584B97009B68DE59574B99469E42DC
:1017B00006D0AE4200D17DE0544C331B2F2B12D902
:1017C000504B9B68DE51BFF35F8FBFF35F8F0022EA
:1017D0004B4B1A608BF3108803B03CBC9046994683
:1017E000A246AB46F0BD012383409A465246484B81
:1017F0001B681A4000925246464B1A60BFF35F8F37
:10180000FEF731FD0190002849D1012332009A43AF
:1018100013001B1B5B4146495943090D93689D42C8
:101820004DD006201056002805DA31E00620185663
:101830001A0000282CDB43001B189B00E318986853
:101840008542F3D10620185600283BDB42001118D0
:10185000890065188846A9689960E979D9710621D7
:1018600069569971A9797F2926D8AD88E11A6D0545
:101870002D1545444919E0250905490D2D02294337
:1018800099801218244B9200A4181A781870A2712B
:10189000009B002B08D152461E4B1A6090E78045F2
:1018A000B3D0FFF767FDB0E752461C4B1A60184BE8
:1018B0001A6085E71E0083E7BD210902E0E71300F7
:1018C0000022BFE7019800280AD1002A15D0FF3076
:1018D000907113489080104A107811709871D7E772
:1018E000104A1149D21A083A5002400D014399801A
:1018F0000E4952080A43DA80CAE74E46EBE7C04673
:10190000240100D000ED00E0CD010010AC0100206A
:1019100000E100E080E100E0790C002080E200E0DE
:1019200000BDFFFFE601002000F0FFFF00F8FFFF11
:10193000AAAA0000F8B5012504000543FEF793FCB0
:10194000EFF3108672B6214A1368002BFCD0BFF368
:101950005F8F1F4A2100891A4941224B4B431B0DBF
:101960001C4980008F685BB23F58BD4226D00621DB
:101970005156994226D012215156994224D01E2107
:101980005156994210D02A215156032099420CD029
:10199000114A11781370A171BFF35F8F00220B4BB6
:1019A0001A6086F31088F8BD0220410009188900EA
:1019B0005218FF21917109499180E9E78A68084925
:1019C0001150E5E70020F0E70120EEE7240100D008
:1019D000AC01002000ED00E0790C002000BDFFFF0D
:1019E000CD010010AAAA0000F0B500220324FF27B1
:1019F000802620003D00094B11009C461040C0008D
:101A00008540A14361440B680132AB4335008540FA
:101A10002B430B60202AECD1F0BDC04600E400E06F
:101A200010B5002800D110BD0B4B1C68A26893684C
:101A3000013B9360002B04DB1368591C1160187084
:101A4000F1E791698B4201DB0A28F5D10100200002
:101A500000F09EFDE7E7C0462002002010B5094ACD
:101A600084B01468002C09D0012200910300524276
:101A700003A90548A047012004B010BD00F07CF97F
:101A80000020F9E7540C0020211A0010014804211D
:101A9000014B184700020020BD1A0010142310B596
:101AA0000100188804331B88984710BD162310B511
:101AB0000100188802331B88984710BDF8B54746C7
:101AC000CE4680B50F1E19D0142399460433040066
:101AD0000025012698464B461888434621681B88F6
:101AE000984701C4431E9841013540420640AF4229
:101AF000F1D130000CBC90469946F8BD0126F8E7BC
:101B0000134A936F9B0813D210665166002905D0C3
:101B1000FFE7FFE7FFE7516F106F704704B500283C
:101B200001D00020C04301F017FB002104BDC046D6
:101B3000936F5B08FDD3F0B5946ED56E576F166F3B
:101B4000FFF7E2FF9466D56657671667F0BD0000A1
:101B5000000000D0132370B51C78012C10D00BDDD1
:101B60000C48FFF7A3FF0C4D01008022280000F075
:101B70009FF8022C01D070BD074D084AAA64FAE70D
:101B8000054D064A29002B00803104C38B42FCD14D
:101B9000AA64F0E7534400007C0C0020A11B001055
:101BA00007B5604601880A0A0230DF2AFAD1C9B2B5
:101BB000820804D3028840880004104300E00068D3
:101BC000014A5050039007BD7C0C00205143434311
:101BD000C9188C46110C83B24B4310B4040C6143FA
:101BE00092B280B2504362431C041B0C001910BC1B
:101BF00059411304120CC018514161447047000050
:101C0000132310B51C781348FFF750FF012C0BD09D
:101C100004DD01008022104800F04AF80F48FFF769
:101C20003DFF0F4B186010BD0B4C010054222000EB
:101C300000F03EF80B4B6365A365E36523666366BE
:101C4000A366E36623676367A367E3672362E361D1
:101C5000E4E7C046534600007C0D00204C330000F2
:101C60007C0E0020691C001007B5604601880A0A36
:101C70000230DF2AFAD1C9B2820804D30288408830
:101C80000004104300E00068014A5050039007BD73
:101C90007C0D002001480421014B18471002002050
:101CA000BD1A0010014B1B681847000010020020ED
:101CB000014B5B681847000010020020F8B547464A
:101CC000CE4680B5437C80460E001700002B48D0DE
:101CD000002A2EDD274B012500240020994604E030
:101CE0002B00013401359F4219DD002C3ED0631ECC
:101CF000F35C0D3B59425941CBB2325D0A2AEFD118
:101D0000002BEDD1844226DC434648461B68022165
:101D10009847013428002B0001359F42E5DCB8428A
:101D20000BDBF619013E33780D3B594259414346CE
:101D300019740CBC90469946F8BD4346391A3018C0
:101D4000F6191B68013E984733780D3B59425941BB
:101D500043461974EDE74346211A1B68301898472B
:101D6000D2E70368110030009847E2E743461B7C46
:101D7000C3E7C04634320010F0B5DE464E46574643
:101D80004546E0B583B0070000F0D0FBD02301AE9C
:101D90001B068046310035481C6801F0E5F9814694
:101DA000002807D1019B9C4204D0304801F0E4F99F
:101DB000012399464346C346013351D02C4B1C683E
:101DC0009A46002C40D02B4D02E0E468002C20D035
:101DD0002368002BF9D02B68002B01D0A342F4D14B
:101DE0005A4639002000FFF769FF0A233370637CED
:101DF000002B30D0237C002B21D102211E482368E8
:101E0000984733780D3B594259412174E468002CBE
:101E1000DED14B46002B1AD153461C68002C06D04D
:101E20006368002B00D09847E468002CF8D1404646
:101E300003B03CBC90469946A246AB46F0BD01219A
:101E4000300023689847DCE74B46002BEFD007486B
:101E500001F07AF9E0E70121300023689847B4E700
:101E6000380000F063FB8346A8E7C046600A002004
:101E7000480C00204C0C002034320010F0B54646CF
:101E8000DE465746C0B5904682B00E0000282CD1E1
:101E9000174B184D1A685B68174F9A46174B0192FB
:101EA0009B465B461C68002C05D115E0A34205D07B
:101EB000E468002C10D02B68002BF7D1A368002B0E
:101EC000F6D04146300098470028F1DD02B01CBC36
:101ED00090469A46A346F0BD7B6A9A45E1D8BA6A15
:101EE00001998A4201D29A45DBD001204042EDE7B8
:101EF000883100104C0C002000400540480C0020A8
:101F0000F0B54646D6464F46C0B5884682B0160064
:101F100001283FD1D0231B061C68204B01A91800C3
:101F20009A4601F021F9071E06D1019B9C4203D07D
:101F3000504601F021F90137B146731C25D0184BEA
:101F40001C68002C14D0174D02E0E468002C0FD060
:101F50002368002BF9D02B68002B01D0A342F4D1C9
:101F600020004A464146FFF7A9FEE468002CEFD165
:101F7000002F06D1300002B01CBC90469946A24604
:101F8000F0BD504601F0E0F8F4E7404600F0CEFA2C
:101F90008146D4E701267642ECE7C046600A00207D
:101FA000480C00204C0C0020F0B557464546DE4654
:101FB0004E46E0B50D000B3583B00700162D00D856
:101FC0009FE007239D4300D5C4E0A94200D9C1E0AA
:101FD00000F096FAF823FF339D4200D889E2680AA0
:101FE00000D1BBE0042800D964E138239846A80951
:101FF00080443930C100C94E71180839CC68A142FB
:1020000019D0032362689A431300521B0F2A00DD84
:10201000AAE0002A00DB88E003239C4608E0624631
:10202000636893435A1B0F2A00DD9DE0002A7CDA87
:10203000E468A142F3D1320034690832944200D1FD
:102040008BE10323616899438946491B0F2900DD11
:1020500070E172613261002900DB87E0B04A4B46D3
:10206000914500D932E1DB08FF3A9910FF3A8A40E6
:10207000DB0071689B190A4399687260E360A16094
:102080009C601300CC6001218210914099426FD86E
:102090000B4205D103229043490004300B42FBD090
:1020A00003239846C3009946B144CC468246634612
:1020B000DC68A44507D152E1002A00DB61E1E46855
:1020C000A44500D14BE14246636893435A1B0F2A53
:1020D000F2DD01208046611905436560A068E5686E
:1020E0000836C560A8604046F160B16010434860A2
:1020F000CE608E603800E25000F004FA2000083014
:1021000021E0102926D8380000F0FAF9102518230C
:102110000220824EF3181A005C68083A944200D1FB
:1021200029E1032362689A431300E268A168CA6048
:1021300091600122E318596838000A435A6000F0A0
:10214000E1F92000083003B03CBC90469946A24615
:10215000AB46F0BD0C2300203B60F4E780213F2319
:1021600040208900984646E7404664E74B46E0E752
:102170000323B46862689A439046AA4203D3531B70
:102180000F2B00DD88E023004344664A0193664B31
:1021900093469A4692681B68EB18013200D161E1C0
:1021A000624A944663441B0B1B030093009938005A
:1021B00000F0AAF903008146013362D0019B8342FB
:1021C00000D9F9E053465B68009A9C465346624446
:1021D0005A60019B1100834200D14FE15B469B682E
:1021E000013300D166E14B46019A9B1A59185346B8
:1021F000596007234A46134000D11EE10821894651
:102200004B49D21A9144CB1A009A38004A4411051E
:10221000090D5B1A19009B4600F076F9431C00D1AA
:102220003CE14B46C01A01235844184353465B68AF
:102230005B441900534659604B46B3605860B44242
:1022400013D043460F2B00D8E2E0434607226068D4
:102250000C3B9343063A024005201A436260E218A1
:10226000506090600F2B00D91CE15346DB6A994205
:1022700001D95346D96253461B6B994201D9534643
:1022800019630323B46862689A43531B954200D9CB
:10229000C1E00F2B00DCBEE00122290013431143F3
:1022A000651961603800B5606B6000F02BF92000A3
:1022B000083048E7142873D9542800D9B2E06E23B7
:1022C0009846280B80446F30C10094E65A0A042ACD
:1022D0006CD9142A00D9C8E011005C325B31D200FD
:1022E00008235B429C46B218944463469A680323D1
:1022F0009846944500D1A3E04346516899438945E7
:1023000000D38DE092689445F6D16346DA6873682D
:102310006146E260A1609460CC60B4E650060020A3
:10232000FF010000500A00209C0B00200F1000004D
:1023300008100000012360191D4365607061306161
:10234000C26082601A004B460A4342603800E15086
:1023500000F0D8F820000830F5E6736893E608230B
:102360009B46073BDC449B46DA44434652461342B5
:1023700000D09CE636E0DC680230A34200D15AE689
:10238000CFE60122E318596838000A435A60E3682F
:10239000A268D3609A6000F0B5F820000830D2E659
:1023A0005B23984680445C30C10024E69A09110002
:1023B00039323831D20093E7B44200D061E7534656
:1023C0005B68009A9C465346624411005A6005E7D8
:1023D00008235B429C46E1444B469B680138994583
:1023E00000D084E043460342F2D173688B437360AC
:1023F0004900994200D9BBE6002900D1B8E6504611
:102400000B4200D04EE6490004300B42FBD049E6B7
:1024100001234A465360380000F074F8002092E629
:10242000944672E7AA235B00984211D8DD3B984698
:10243000E80B80447830C100DDE580235B01E3E6F2
:102440008910023B8B4072681343736062465FE7FA
:102450002A4B98421CD87C239846A80C80447D3097
:10246000C100C8E510330093A0E6542A26D84B4695
:102470001A0B11006F326E31D20031E71B0500D00C
:10248000ACE60120009BB268434403435360ECE692
:10249000FE217E237F2089009846ACE500230120A1
:1024A0009B46C3E621003800083100F07DFB53460F
:1024B0005968DAE65B464A469A609AE6AA214900DC
:1024C0008A4206D84B46DA0B110078327731D200B7
:1024D00006E70A498A4206D84B469A0C11007D321B
:1024E0007C31D200FCE6FE227E219200F8E6736881
:1024F0007EE72B00E80808330BE6C04654050000D1
:102500007047C0467047C046002370B5064C0500B2
:1025100008002360FEF7FAFE431C00D070BD23685C
:10252000002BFBD02B60F9E7800E002010B583074D
:1025300025D00378002B24D00300032102E01A7871
:10254000002A1AD001330B42F9D119680E4A0F4CF8
:102550008A188A43224206D1043319680A4A8A1823
:102560008A432242F8D01A001B78002B03D0013294
:1025700011780029FBD1101A10BD181AFCE70300CE
:10258000E3E70020F8E7C046FFFEFEFE8080808083
:10259000F8B506000D001400002802D0836B002B54
:1025A0004ED0A369A3600C23E05E81B20B073CD53B
:1025B0002369002B39D0FF22EFB21540802292010F
:1025C000114215D022686169D31A8B421BDA01339C
:1025D000A1680139A160511C2160177062699A429B
:1025E0001AD0A389DB0701D50A2D15D02800F8BD24
:1025F0000243616EA281144A0A40626661692268E0
:10260000D31A8B42E3DB2100300000F03DF90028B3
:1026100008D122680123DBE72100300000F034F903
:102620000028E3D001256D42E0E72100300000F0F2
:1026300019F80028F6D10C23E05E236981B2BAE7CD
:1026400000F03AFAADE7C046FFDFFFFF10B5044BDC
:102650000A001B6801001800FFF79AFF10BDC04672
:1026600020020020334B70B5050018680C000028CC
:1026700002D0836B002B3CD00C23E25E93B219078F
:102680000DD52169002915D0DA0721D50023A360D3
:10269000636900205B42A361002921D070BDD90687
:1026A0003FD55B0728D4216908231343A3819BB23C
:1026B0000029E9D1A0228020920080001A408242A5
:1026C000E2D02100280000F0C5FBA3892169DBE7E7
:1026D00000229B0700D46269A26000200029DDD19E
:1026E0000C22A35E1A06D9D540221343A3810138D8
:1026F000D4E700F0E1F9BFE7216B00290AD02300FD
:102700004033994204D0280000F04EFA0C23E25ED8
:102710000023236324239A430023216963602160FB
:10272000C2E709232B60402301201A43A2814042C3
:10273000B4E7C04620020020F0B5C64600B50C2321
:10274000CA5E804693B20C00190740D480231B0157
:1027500013436268A381002A00DC70E0A66A002EA1
:1027600031D042464146156800229BB20A60DA0425
:1027700000D469E0226D5B0706D56368D21A236B2B
:10278000002B01D0E36BD21A0023E1694046B04729
:10279000431C3DD0A3893A4A13400022626022695B
:1027A0001BB2A3812260DB0447D44346216B1D602A
:1027B000002908D023004033994202D0404600F05F
:1027C000F3F900232363002004BC9046F0BD266982
:1027D000002EF8D022682660951B00229B0700D1AE
:1027E0006269A260002D04DCEDE736182D1A002D79
:1027F000E9DD2B003200E1694046676AB8470028EE
:10280000F3DC40220120A38940421343A381DBE78C
:10281000434619681D29F4D81A4B0122CB409A432C
:10282000EFD1A389164E6260334022691BB2A381A7
:102830002260DB04B9D50029B7D12065B5E7E26B8A
:10284000002A00DD8AE7BEE700220123E169404655
:10285000B0470200431C02D0A389A66A8BE7434617
:102860001B68002BF8D01D2B01D0162B03D143463B
:1028700000201D60A8E74021A3890B43A381A3E7A3
:10288000FFF7FFFF0100402070B504000D00002895
:1028900002D0836B002B09D00C22AB5E0020002BF2
:1028A00003D029002000FFF747FF70BD00F004F9B6
:1028B000F2E7C04610B5011E04D0054B1868FFF7BB
:1028C000E3FF10BD034B0449186800F06DFAF8E708
:1028D00020020020383200108928001000207047A4
:1028E00010B5024900F060FA10BDC046C92F0010B3
:1028F000F8B5DE4657464E464546344BE0B5C36311
:10290000B823002403229B00C45004334568C250FE
:102910000833C218043BC2500600042328002C6070
:102920006C60AC60AB816C66EC812C616C61AC61FD
:10293000082200215C30FFF7B5F9254B254F9A4658
:102940002B62254BEF6299466B62244BED61AB62C3
:10295000B568984609232800AB81083B2C606C6061
:10296000AC606C66EB812C616C61AC61082200216B
:102970005C309B46FFF796F953462B624B466B62E1
:102980004346EF62AB62ED61F56812232800AB812C
:10299000103BEB812C606C60AC606C662C616C61F0
:1029A000AC61082200215C30FFF77CF953462B62B2
:1029B0004B466B624346AB625B46EF62ED61B363CD
:1029C0003CBC90469946A246AB46F8BDE1280010B3
:1029D000DD2E0010712F0010092F0010452F001060
:1029E0000020704770B568244A1E54430E00210031
:1029F0007431FFF7D9FA051E09D0002322000360C5
:102A000046600C30A86068320021FFF74BF92800BF
:102A100070BDC046214B70B51D680600AB6B002B26
:102A20002DD0B8239B009C4665446B68AC68013B85
:102A300003D51FE06834013B1CD30C21625E002AE1
:102A4000F8D10123002520005B42E3810233A381FA
:102A500065662560A560656025616561A5610822E0
:102A600000215C30FFF71EF9256365636564A5648A
:102A7000200070BD2868002805D00500D5E7280093
:102A8000FFF736FFCDE704213000FFF7ABFF2860EA
:102A90000028F2D10C2300243360E9E7383200101B
:102AA00010B5034B0349186800F07EF910BDC0460D
:102AB00038320010C92F0010836B10B5002B01D1E4
:102AC000FFF716FF10BDC0467047C0467047C046AE
:102AD0007047C0467047C04610B5034B034918689D
:102AE00000F040F910BDC04620020020E12900108E
:102AF00010B5034B0349186800F034F910BDC04607
:102B000020020020DD280010F8B50C000600FFF7B9
:102B1000F7FC204FBB685D6803239D431E4B2C1BB5
:102B20009C466444240B1D4B013C24039C4207DD5E
:102B300000213000FFF7E8FCBB685B19984204D025
:102B40003000FFF7DFFC0020F8BD61423000FFF7E6
:102B5000DBFC431C0DD00122BB682D1B15435D60BF
:102B60000F4B30001A68141B1C60FFF7CBFC0120D0
:102B7000EAE700213000FFF7C7FCBA68831A0F2B81
:102B8000DEDD08490968401A0549086001210B4348
:102B90005360D5E750060020EF0F0000FF0F000044
:102BA000A00B0020580A0020F8B504000D1E3CD0F0
:102BB000FFF7A6FC29000839486801230500032611
:102BC0009D434A199C46614F5368B343BE68B24265
:102BD00056D06646536006420AD13E000868083661
:102BE000091A2D188868B04265D0CE68C660B060FA
:102BF0000120D6187668064233D0554B28434860EA
:102C00004D519D4212D8ED08FF3BAA10FF3B934067
:102C10007A68ED0013437B60EF19BB68CF608B606F
:102C2000B960D9602000FFF76DFCF8BD680A042880
:102C300050D8A809020039303832C0003818083896
:102C40008368032698424CD05A68B243954230D2EA
:102C50009B689842F8D1C368CB6088609960C16076
:102C6000E0E7ED183B4E9368B34242D0D268284368
:102C7000DA609360364B48604D519D42D6D8C2E72A
:102C80006246EB18024206D10A68891A88689B18C6
:102C9000CA68C260906001221A434A602E4AB96035
:102CA00012689342BED32D4B20001968FFF72CFF0A
:102CB000B8E71800CFE76646D018406830423FD1E9
:102CC00090685D19D368C360986063462B434B607E
:102CD0004D51A7E7142814D802005C305B32C000C5
:102CE000ACE70123921093407A6813437B600300A2
:102CF000B2E72843D9609960CB608B6048604D5142
:102D000090E7542805D8280B02006F306E32C000BF
:102D100094E7AA225200904205D8E80B02007830CE
:102D20007732C0008AE70E4A904205D8A80C02000C
:102D30007D307C32C00081E7FE207E2280007DE76E
:102D400063462B434B6015606CE7C046500600207D
:102D5000FF010000580600205C0A00209C0B0020A8
:102D600054050000B823F0B5C6469B00C71800B54F
:102D700088460026002F13D07B68BC685D1E0CD4EB
:102D8000A389012B06D90E22A35E013302D02000B5
:102D9000C04706436834013DF2D23F68002FEBD1B3
:102DA000300004BC9046F0BDF8B54746CE4680B52D
:102DB000B8278046BF00474489460026002F14D01C
:102DC0007B68BC685D1E0DD4A389012B07D90E2238
:102DD000A35E013303D021004046C8470643683450
:102DE000013DF1D23F68002FEAD130000CBC904683
:102DF0009946F8BD70B50C001E000E23C95E90B058
:102E00001500002915DB01AA00F02EF9002810DBBF
:102E1000F022029B120213400D4A80209446634424
:102E20005A42534133608023DB002B60000110B015
:102E300070BD00233360A3891B0603D54023002007
:102E40002B60F4E78023DB002B600020EFE7C04617
:102E500000E0FFFF70B58B8982B005000C009B0776
:102E600007D523004333236023610123636102B04C
:102E700070BD01AB6A46FFF7BDFF00990600280050
:102E8000FFF792F800281CD08022134BEB63A38934
:102E900020601343009A1BB26261019AA3812061F2
:102EA000002A02D13343A381E1E70E23E15E28002B
:102EB00000F0EEF800280CD00122A38913431BB2C6
:102EC000F0E70C22A35E9A05D1D402221343A3811A
:102ED000C7E70C22A35EE5E7E128001070B50C00FF
:102EE0000E25495F00F0FAF8002803DB236D1B185C
:102EF000236570BDA389024A1340A381F9E7C04648
:102F0000FFEFFFFF00207047F8B516001F000C22EE
:102F10008B5E05000C00DA0507D50E23C95E002282
:102F2000022300F0C7F80C22A35E054A28001340D4
:102F3000A38132000E23E15E3B0000F01FF8F8BDD4
:102F4000FFEFFFFF70B50C000E25495F00F0B2F8EF
:102F5000431C06D08023A2895B011343A381206513
:102F600070BDA389014A1340A381F9E7FFEFFFFF7A
:102F700010B50E23C95E00F015F810BD70B5050040
:102F8000080011000022064C22601A00FEF7B8FF6C
:102F9000431C00D070BD2368002BFBD02B60F9E7E9
:102FA000800E0020002370B5064C05000800236049
:102FB00000F0A8F8431C00D070BD2368002BFBD0A4
:102FC0002B60F9E7800E002070B505000C1E08D0BC
:102FD000002802D0836B002B31D00C22A35E002B83
:102FE00002D10026300070BD21002800FFF7A4FBAD
:102FF000E36A0600002B04D0E16928009847002806
:1030000020DBA3891B0620D4216B002908D02300D4
:103010004033994202D02800FFF7C6FD0023236306
:10302000616C002904D02800FFF7BEFD0023636413
:10303000FFF74AFD0023A381FFF748FDD2E7FFF722
:103040003BFDCAE701267642DBE721692800FFF74E
:10305000ABFDD9E710B5034B01001868FFF7B4FFCB
:1030600010BDC04620020020002370B5074C0500AB
:1030700008001100236000F04DF8431C00D070BD23
:103080002368002BFBD02B60F9E7C046800E0020A0
:10309000002370B5064C05000800236000F042F8DC
:1030A000431C00D070BD2368002BFBD02B60F9E7D8
:1030B000800E002070B50500080011000022064CAB
:1030C00022601A0000F036F8431C00D070BD23685F
:1030D000002BFBD02B60F9E7800E002070B50500B7
:1030E000080011000022064C22601A00FEF7C6FEFE
:1030F000431C00D070BD2368002BFBD02B60F9E788
:10310000800E002058220120014B40421A60704777
:10311000800E002058220120014B40421A60704767
:10312000800E00205822024B00201A607047C046D3
:10313000800E002058220120014B40421A60704747
:10314000800E0020F8B5C04601B40248844601BC98
:10315000604700BF5501002001B40248844601BC0D
:10316000604700BF7D01002001B40248844601BCD5
:10317000604700BF0D01002001B40248844601BC35
:08318000604700BFC100002000
:10318800FFFFFFFFFFFFFF7F486172647761726591
:1031980020616C61726D20256420616C72656164C8
:1031A8007920636C61696D65640000004861726430
:1031B80020617373657274000A2A2A2A2050414ECE
:1031C8004943202A2A2A0A000A0000000600525011
:1031D800BBFF3CB61832001006005250E182887FCF
:1031E8000032001006005250D3F07542F83100103A
:1031F80052656C6561736500626F6F74325F773218
:103208003571303830000000312E312E3200000088
:103218007069636F00000000626C696E6B65720014
:103228004170722031342032303231000D0A0000F2
:08323800280200204300000001
:10324000B4020010A80200109C020010D43100103B
:0C32500090020010E0310010EC31001082
:10325C0010B501680024EFF3108372B60A68002AD7
:10326C00FCD0BFF35F8F02797F2A0BD80268BFF3C3
:10327C005F8F146083F3108820BF0168EFF3108315
:10328C0072B6EBE7D0221206126802710268BFF325
:10329C005F8F0021116083F3108810BD030010B5FF
:1032AC000068EFF3108472B60268002AFCD0BFF3FA
:1032BC005F8F04229A56002A0BDB00290FD00020C6
:1032CC000A601B68BFF35F8F00221A6084F31088BA
:1032DC0010BDD0221206126801201A71F1E70020ED
:1032EC00EFE7C0460268EFF3108172B61368002B4B
:1032FC00FCD0BFF35F8FFF23037140BF0368BFF3A4
:10330C005F8F00221A6081F3108870477047C046A7
:10331C00100000009C01002000000000800A00202A
:10332C00080C00200000000000000000180C002019
:10333C000000000000000000100000000000000071
:10334C00000001000000000000000000000002006E
:10335C00000000000000000000000300000000005E
:10336C00000000000000FF000000000000B54868ED
:10337C0001318E460047704609380149884700BD27
:10338C0035190010000000000000000000000000D3
:10339C00503300004C330000543300005233000013
:1033AC004D5300004D4300005334000043340000E3
:1033BC00280200200000000000000000140500207E
:1033CC007C050020E4050020000000000000000047
:1033DC0000000000000000000000000000000000E1
:1033EC000000000000000000000000003C32001053
:1033FC0000000000000000000000000000000000C1
:10340C0000000000000000000000000000000000B0
:10341C0000000000000000000000000000000000A0
:10342C000000000000000000000000000000000090
:10343C000000000000000000000000000000000080
:10344C000000000000000000000000000000000070
:10345C000000000000000000000000000000000060
:10346C0001000000000000000E33CDAB34126DE6FD
:10347C00ECDE05000B000000000000000000000066
:10348C000000000000000000000000000000000030
:10349C000000000000000000000000000000000020
:1034AC000000000000000000000000000000000010
:1034BC000000000000000000000000000000000000
:1037EC0000000000000000005006002050060020E1
:1037FC0058060020580600206006002060060020B5
:10380C006806002068060020700600207006002064
:10381C007806002078060020800600208006002014
:10382C0088060020880600209006002090060020C4
:10383C009806002098060020A0060020A006002074
:10384C00A8060020A8060020B0060020B006002024
:10385C00B8060020B8060020C0060020C0060020D4
:10386C00C8060020C8060020D0060020D006002084
:10387C00D8060020D8060020E0060020E006002034
:10388C00E8060020E8060020F0060020F0060020E4
:10389C00F8060020F8060020000700200007002092
:1038AC000807002008070020100700201007002040
:1038BC0018070020180700202007002020070020F0
:1038CC0028070020280700203007002030070020A0
:1038DC003807002038070020400700204007002050
:1038EC004807002048070020500700205007002000
:1038FC0058070020580700206007002060070020B0
:10390C00680700206807002070070020700700205F
:10391C00780700207807002080070020800700200F
:10392C0088070020880700209007002090070020BF
:10393C009807002098070020A0070020A00700206F
:10394C00A8070020A8070020B0070020B00700201F
:10395C00B8070020B8070020C0070020C0070020CF
:10396C00C8070020C8070020D0070020D00700207F
:10397C00D8070020D8070020E0070020E00700202F
:10398C00E8070020E8070020F0070020F0070020DF
:10399C00F8070020F807002000080020000800208D
:1039AC00080800200808002010080020100800203B
:1039BC0018080020180800202008002020080020EB
:1039CC00280800202808002030080020300800209B
:1039DC00380800203808002040080020400800204B
:1039EC0048080020480800205008002050080020FB
:1039FC0058080020580800206008002060080020AB
:103A0C00680800206808002070080020700800205A
:103A1C00780800207808002080080020800800200A
:103A2C0088080020880800209008002090080020BA
:103A3C009808002098080020A0080020A00800206A
:103A4C00A8080020A8080020B0080020B00800201A
:103A5C00B8080020B8080020C0080020C0080020CA
:103A6C00C8080020C8080020D0080020D00800207A
:103A7C00D8080020D8080020E0080020E00800202A
:103A8C00E8080020E8080020F0080020F0080020DA
:103A9C00F8080020F8080020000900200009002088
:103AAC000809002008090020100900201009002036
:103ABC0018090020180900202009002020090020E6
:103ACC002809002028090020300900203009002096
:103ADC003809002038090020400900204009002046
:103AEC0048090020480900205009002050090020F6
:103AFC0058090020580900206009002060090020A6
:103B0C006809002068090020700900207009002055
:103B1C007809002078090020800900208009002005
:103B2C0088090020880900209009002090090020B5
:103B3C009809002098090020A0090020A009002065
:103B4C00A8090020A8090020B0090020B009002015
:103B5C00B8090020B8090020C0090020C0090020C5
:103B6C00C8090020C8090020D0090020D009002075
:103B7C00D8090020D8090020E0090020E009002025
:103B8C00E8090020E8090020F0090020F0090020D5
:103B9C00F8090020F8090020000A0020000A002083
:103BAC00080A0020080A0020100A0020100A002031
:103BBC00180A0020180A0020200A0020200A0020E1
:103BCC00280A0020280A0020300A0020300A002091
:103BDC00380A0020380A0020400A0020400A002041
:103BEC00480A0020480A0020FFFFFFFF00000200E7
:103BFC000000000000000000951C00108D1A001041
:0C3C0C00551B0010011C00103D030010AF
:04000005100001E9FD
:00000001FF
